:020000021000EC
:10F0000012E0A0E0B2E0E4E8F6EF01E00BBF02C0DE
:10F0100007900D92A030B107D9F71BBE15E0A0E014
:10F02000B2E001C01D92A032B107E1F794B790930E
:10F03000000214BE8091600088618093600010928D
:10F04000600091FD05C0E0910102F0910202199566
:10F0500011248FEF91E29EBF8DBF00D188E0809395
:10F060006000FFCF8EBD0DB407FEFDCF08951F9346
:10F07000CF93DF938FEFF6DF289816E0C3E0D2E05E
:10F080008991F0DF1150E1F7CFEF8FEFEBDF8EB515
:10F0900087FF02C0C150C9F7DF91CF911F9108953A
:10F0A000CF93DF93DC01CB01880F991FAA1FBB1FF1
:10F0B00021E520930302A09304029093050280931C
:10F0C00006021092070280E58CBDD1DF882341F44F
:10F0D000CFEF8FEFC7DF8EB58E3F29F0C150C9F754
:10F0E000289A83E010C0CEE1D2E08FEFBBDF8EB56F
:10F0F000899384E0CE31D807C1F78FEFB3DF8FEF6C
:10F10000B1DF289A80E0DF91CF910895A0E0B0E0D0
:10F11000EBE8F8EF7EC280901C0290901D028EE119
:10F12000881684E0980608F462C0E0901402F0901B
:10F130001502C0901602D0901702C0910B02DC2F6E
:10F14000D150DC21C6958C2F860103C016950795FA
:10F1500086958823D9F78FEF19C0AF2CBB248A1569
:10F1600059F08091090290910A028A0D911DBC010B
:10F1700080E090E095DF8A2DF701F070EE0FFF1F21
:10F18000E25EFD4FE080F180015010400115110555
:10F1900021F7F7013297CF01A0E0B0E005C0880F5A
:10F1A000991FAA1FBB1FC695CC23C9F74091100217
:10F1B0005091110260911202709113024D0F511D76
:10F1C000611D711D480F591F6A1F7B1FCB01BA01BA
:10F1D00067DF0894C11CD11CD0921702C09216029E
:10F1E000C4018050924090931D0280931C02809134
:10F1F000180290911902A0911A02B0911B02019776
:10F20000A109B1098093180290931902A0931A02E0
:10F21000B0931B02E0911C02F0911D028191F093CA
:10F220001D02E0931C02CDB7DEB7ECE00EC28136C2
:10F2300010F087550895813410F087530895803376
:10F2400008F080530895CF9361DFF1DFC82F5EDFB0
:10F25000EEDFC295C07F8C0FCF910895A0E0B0E0A3
:10F26000E3E3F9EFDAC100E214E0CFEFDFE0EC2EE8
:10F27000E094CE01FFD18F3F51F0F80181938F01CF
:10F280002197FFE0C73FDF0791F7D8E0ED2EEE2D85
:10F29000F0E0E05EFB4F1082EE2009F463C12C9A8F
:10F2A00084B1866184B9209A83E58CBDCAE08FEF72
:10F2B000D9DEC150E1F780E480930302109204028A
:10F2C00010920502109206021092070285E98093BF
:10F2D0000802C0E1CCDE082F289A8FEFC3DE013090
:10F2E00019F0C150B9F73EC181E48093030203C015
:10F2F000289A8FEFB7DEBBDE8823D1F721C180913A
:10F300005802863329F410920A021092090217C09B
:10F310006091E4037091E5038091E6039091E70327
:10F3200070930A0260930902BBDE80915402863416
:10F3300009F018C180915802863309F013C18091F9
:10F340002B0280930B0240912C0250912D02809150
:10F35000090290910A02480F591F50930A024093E4
:10F36000090220912E0230E0809134029091350202
:10F37000289FB001299F700D389F700D1124640FD4
:10F38000751F70930D0260930C0280912F02909173
:10F390003002A4E096958795AA95E1F790930F0225
:10F3A00080930E02860F971FA0E0B0E080931002BA
:10F3B00090931102A0931202B0931302EE24FF2443
:10F3C000CEE1CC2EC4E0DC2EC701F4E09695879503
:10F3D000FA95E1F720910E0230910F028217930700
:10F3E00008F0A4C0CE2DCF7060910C0270910D0278
:10F3F000680F791F80E090E053DEAC2FB0E0E5E0CD
:10F40000AA0FBB1FEA95E1F7A25EBD4F8C9188233E
:10F4100009F48CC0853E09F489C05A968D919C915F
:10F420005B97009709F482C09093150280931402B1
:10F430005C964D915D916D917C915F974093180220
:10F440005093190260931A0270931B0210921702D4
:10F4500010921602D0921D02C0921C0231E020E0F0
:10F4600009C08A0F9B1F51E0FC018081481350E0C6
:10F4700035232F5F822F90E0FC01E05EFB4F40813F
:10F48000442379F7332309F451C0222309F44EC0F1
:10F4900019968C911997853409F048C018968C916B
:10F4A0001897883409F042C01A968C911A978835BB
:10F4B00009F03CC04FC00023A9F0C5DE899301507C
:10F4C000F5E0C032DF0701F551D080911E04909124
:10F4D0001F0480509F4F90931F0480931E04C0E22E
:10F4E000D4E012C013DE8A3379F4ADDE082F209108
:10F4F0001C0230911D022C5F3F4F30931D02209360
:10F500001C02A1DE882369F440911802509119026F
:10F5100060911A0270911B02411551056105710538
:10F5200051F684E0C032D80709F020D00894E11CDD
:10F53000F11CE0E0EE16E2E0FE0609F045CF12C055
:10F5400060E070E0CB01ACDD80915402863409F0BC
:10F55000DFCED5CE10921F0410921E04C0E2D4E07C
:10F5600000E0D2CFCDB7DEB7E8E073C0CF92DF9234
:10F57000FF920F931F93CF93DF93F999FECFC09122
:10F580001E04D0911F04AE0160E070E083E0FA0138
:10F5900060935B0080935700E89507B600FCFDCFB1
:10F5A00000E214E020E030E0FF24F394F801C19081
:10F5B000D1908F01C9018C0F9D1FA0E0B0E0060122
:10F5C000FC01A0935B00F0925700E89511242E5F98
:10F5D0003F4FF1E020303F0749F785E0FA016093A3
:10F5E0005B0080935700E89507B600FCFDCF81E1F2
:10F5F00080935700E895DF91CF911F910F91FF9075
:10F60000DF90CF9008952F923F924F925F926F922A
:10F610007F928F929F92AF92BF92CF92DF92EF92A2
:10F62000FF920F931F93CF93DF93CDB7DEB7CA1B23
:10F63000DB0B0FB6F894DEBF0FBECDBF19942A883E
:10F64000398848885F846E847D848C849B84AA84F6
:10F65000B984C884DF80EE80FD800C811B81AA8183
:10F66000B981CE0FD11D0FB6F894DEBF0FBECDBF4E
:10F67000ED010895F999FECF92BD81BDF89A9927C1
:04F6800080B50895B4
:040000031000F000F9
:00000001FF
