:1078000011E0A0E0B1E0E0E4FEE702C005900D92D7
:10781000A030B107D9F713E0A0E0B1E001C01D929C
:10782000A03AB107E1F794B79093000114BE80919C
:1078300060008861809360001092600091FD05C037
:10784000E0910101F0910201099511248FEF98E078
:107850009EBF8DBF00D188E080936000FFCF8EBDBA
:107860000DB407FEFDCF08951F93CF93DF938FEFE5
:10787000F6DF5C9816E0C3E0D1E08991F0DF1150AB
:10788000E1F7CFEF8FEFEBDF8EB587FF02C0C1507E
:10789000C9F7DF91CF911F910895CF93DF93DC015A
:1078A000CB01880F991FAA1FBB1F21E5209303015D
:1078B000A0930401909305018093060110920701A3
:1078C00080E58CBDD1DF882341F4CFEF8FEFC7DF98
:1078D0008EB58E3F29F0C150C9F75C9A83E010C085
:1078E000CEE1D1E08FEFBBDF8EB5899383E0CE315F
:1078F000D807C1F78FEFB3DF8FEFB1DF5C9A80E07D
:10790000DF91CF910895A0E0B0E0E8E8FCE367C222
:1079100080901C0190901D018EE1881683E09806EE
:1079200008F462C0E0901401F0901501C0901601B7
:10793000D0901701C0910B01DC2FD150DC21C695EE
:107940008C2F860103C01695079586958823D9F755
:107950008FEF19C0AF2CBB248A1559F08091090113
:1079600090910A018A0D911DBC0180E090E095DFA5
:107970008A2DF701F070EE0FFF1FE25EFE4FE080F0
:10798000F180015010400115110521F7F7013297E0
:10799000CF01A0E0B0E005C0880F991FAA1FBB1F50
:1079A000C695CC23C9F74091100150911101609107
:1079B0001201709113014D0F511D611D711D480F72
:1079C000591F6A1F7B1FCB01BA0167DF0894C11CD6
:1079D000D11CD0921701C0921601C4018050924070
:1079E00090931D0180931C018091180190911901C1
:1079F000A0911A01B0911B010197A109B1098093CF
:107A0000180190931901A0931A01B0931B01E09102
:107A10001C01F0911D018191F0931D01E0931C0167
:107A2000CDB7DEB7ECE0F7C1813610F08755089589
:107A3000813410F087530895803308F080530895FF
:107A4000CF9361DFF1DFC82F5EDFEEDFC295C07F2D
:107A50008C0FCF910895CF92DF92EF92FF921F93F8
:107A6000CF93DF93E0E2F3E08FEF93E0282F2095B0
:107A7000F999FECF92BD81BDF89A30B53F3F39F0FC
:107A80003193019723E0873F920781F728E0E22FA7
:107A9000F0E0E05EFC4F1082222309F463C12A9AD1
:107AA00084B18C6284B9549A83E58CBDCAE08FEFAF
:107AB000D6DEC150E1F780E4809303011092040107
:107AC00010920501109206011092070185E980933A
:107AD0000801C0E1C9DE182F5C9A8FEFC0DE1130BB
:107AE00019F0C150B9F73EC181E48093030103C08E
:107AF0005C9A8FEFB4DEB8DE8823D1F721C1809184
:107B00005801863329F410920A011092090117C016
:107B10006091E4027091E5028091E6029091E702A3
:107B200070930A0160930901B8DE80915401863494
:107B300009F018C180915801863309F013C1809172
:107B40002B0180930B0140912C0150912D018091CC
:107B5000090190910A01480F591F50930A0140935F
:107B6000090120912E0130E080913401909135017E
:107B7000289FB001299F700D389F700D1124640F4C
:107B8000751F70930D0160930C0180912F019091EE
:107B90003001A4E096958795AA95E1F790930F019F
:107BA00080930E01860F971FA0E0B0E08093100134
:107BB00090931101A0931201B0931301EE24FF24BE
:107BC000CEE1CC2EC3E0DC2EC701F4E0969587957C
:107BD000FA95E1F720910E0130910F01821793077A
:107BE00008F0A4C0CE2DCF7060910C0170910D01F2
:107BF000680F791F80E090E050DEAC2FB0E0E5E048
:107C0000AA0FBB1FEA95E1F7A25EBE4F8C918823B5
:107C100009F48CC0853E09F489C05A968D919C91D7
:107C20005B97009709F482C090931501809314012B
:107C30005C964D915D916D917C915F974093180199
:107C40005093190160931A0170931B011092170150
:107C500010921601D0921D01C0921C0131E020E06B
:107C600009C08A0F9B1F51E0FC018081481350E03E
:107C700035232F5F822F90E0FC01E05EFC4F4081B6
:107C8000442379F7332309F451C0222309F44EC069
:107C900019968C911997853409F048C018968C91E3
:107CA0001897883409F042C01A968C911A97883533
:107CB00009F03CC04FC01123A9F0C2DE89931150D6
:107CC000F3E0C03ADF0701F555D080911E03909193
:107CD0001F0380589F4F90931F0380931E03C0E2A1
:107CE000D3E012C010DE8A3379F4AADE182F209177
:107CF0001C0130911D012C5F3F4F30931D012093DB
:107D00001C019EDE882369F44091180150911901ED
:107D100060911A0170911B014115510561057105B2
:107D200051F623E0C032D20709F024D00894E11CB8
:107D3000F11C80E0E81682E0F80609F045CF12C099
:107D400060E070E0CB01A9DD80915401863409F038
:107D5000DFCED5CE10921F0310921E03C0E2D3E0F7
:107D600010E0D2CFDF91CF911F91FF90EF90DF9085
:107D7000CF900895F999FECF40911E0350911F03B3
:107D800083E0FA0180935700E89507B600FCFDCF29
:107D9000A0E2B3E020E030E061E08D919D91F90137
:107DA000E40FF51F0C0160935700E89511242E5F36
:107DB0003F4F2038310589F785E0FA01809357005D
:107DC000E89507B600FCFDCF81E180935700E89568
:107DD00008952F923F924F925F926F927F928F926F
:107DE0009F92AF92BF92CF92DF92EF92FF920F934A
:107DF0001F93CF93DF93CDB7DEB7CA1BDB0B0FB654
:107E0000F894DEBF0FBECDBF09942A883988488810
:107E10005F846E847D848C849B84AA84B984C884A6
:107E2000DF80EE80FD800C811B81AA81B981CE0F9D
:107E3000D11D0FB6F894DEBF0FBECDBFED01089582
:040000030000780081
:00000001FF
